{
  "_format": "hh-sol-artifact-1",
  "contractName": "ERC721Tradable",
  "sourceName": "contracts/ERC721Tradable.sol",
  "abi": [
    {
      "inputs": [
        {
          "internalType": "string",
          "name": "_name",
          "type": "string"
        },
        {
          "internalType": "string",
          "name": "_symbol",
          "type": "string"
        },
        {
          "internalType": "string",
          "name": "_baseURI",
          "type": "string"
        }
      ],
      "stateMutability": "nonpayable",
      "type": "constructor"
    },
    {
      "anonymous": false,
      "inputs": [
        {
          "indexed": true,
          "internalType": "address",
          "name": "owner",
          "type": "address"
        },
        {
          "indexed": true,
          "internalType": "address",
          "name": "approved",
          "type": "address"
        },
        {
          "indexed": true,
          "internalType": "uint256",
          "name": "tokenId",
          "type": "uint256"
        }
      ],
      "name": "Approval",
      "type": "event"
    },
    {
      "anonymous": false,
      "inputs": [
        {
          "indexed": true,
          "internalType": "address",
          "name": "owner",
          "type": "address"
        },
        {
          "indexed": true,
          "internalType": "address",
          "name": "operator",
          "type": "address"
        },
        {
          "indexed": false,
          "internalType": "bool",
          "name": "approved",
          "type": "bool"
        }
      ],
      "name": "ApprovalForAll",
      "type": "event"
    },
    {
      "anonymous": false,
      "inputs": [
        {
          "indexed": true,
          "internalType": "address",
          "name": "previousOwner",
          "type": "address"
        },
        {
          "indexed": true,
          "internalType": "address",
          "name": "newOwner",
          "type": "address"
        }
      ],
      "name": "OwnershipTransferred",
      "type": "event"
    },
    {
      "anonymous": false,
      "inputs": [
        {
          "indexed": true,
          "internalType": "address",
          "name": "from",
          "type": "address"
        },
        {
          "indexed": true,
          "internalType": "address",
          "name": "to",
          "type": "address"
        },
        {
          "indexed": true,
          "internalType": "uint256",
          "name": "tokenId",
          "type": "uint256"
        }
      ],
      "name": "Transfer",
      "type": "event"
    },
    {
      "inputs": [
        {
          "internalType": "address",
          "name": "to",
          "type": "address"
        },
        {
          "internalType": "uint256",
          "name": "tokenId",
          "type": "uint256"
        }
      ],
      "name": "approve",
      "outputs": [],
      "stateMutability": "nonpayable",
      "type": "function"
    },
    {
      "inputs": [
        {
          "internalType": "address",
          "name": "owner",
          "type": "address"
        }
      ],
      "name": "balanceOf",
      "outputs": [
        {
          "internalType": "uint256",
          "name": "",
          "type": "uint256"
        }
      ],
      "stateMutability": "view",
      "type": "function"
    },
    {
      "inputs": [],
      "name": "baseURI",
      "outputs": [
        {
          "internalType": "string",
          "name": "",
          "type": "string"
        }
      ],
      "stateMutability": "view",
      "type": "function"
    },
    {
      "inputs": [
        {
          "internalType": "uint256",
          "name": "tokenId",
          "type": "uint256"
        }
      ],
      "name": "getApproved",
      "outputs": [
        {
          "internalType": "address",
          "name": "",
          "type": "address"
        }
      ],
      "stateMutability": "view",
      "type": "function"
    },
    {
      "inputs": [],
      "name": "getCurrentBalance",
      "outputs": [
        {
          "internalType": "uint256",
          "name": "",
          "type": "uint256"
        }
      ],
      "stateMutability": "nonpayable",
      "type": "function"
    },
    {
      "inputs": [
        {
          "internalType": "address",
          "name": "owner",
          "type": "address"
        },
        {
          "internalType": "address",
          "name": "operator",
          "type": "address"
        }
      ],
      "name": "isApprovedForAll",
      "outputs": [
        {
          "internalType": "bool",
          "name": "",
          "type": "bool"
        }
      ],
      "stateMutability": "view",
      "type": "function"
    },
    {
      "inputs": [],
      "name": "name",
      "outputs": [
        {
          "internalType": "string",
          "name": "",
          "type": "string"
        }
      ],
      "stateMutability": "view",
      "type": "function"
    },
    {
      "inputs": [],
      "name": "owner",
      "outputs": [
        {
          "internalType": "address",
          "name": "",
          "type": "address"
        }
      ],
      "stateMutability": "view",
      "type": "function"
    },
    {
      "inputs": [
        {
          "internalType": "uint256",
          "name": "tokenId",
          "type": "uint256"
        }
      ],
      "name": "ownerOf",
      "outputs": [
        {
          "internalType": "address",
          "name": "",
          "type": "address"
        }
      ],
      "stateMutability": "view",
      "type": "function"
    },
    {
      "inputs": [],
      "name": "renounceOwnership",
      "outputs": [],
      "stateMutability": "nonpayable",
      "type": "function"
    },
    {
      "inputs": [
        {
          "internalType": "address",
          "name": "from",
          "type": "address"
        },
        {
          "internalType": "address",
          "name": "to",
          "type": "address"
        },
        {
          "internalType": "uint256",
          "name": "tokenId",
          "type": "uint256"
        }
      ],
      "name": "safeTransferFrom",
      "outputs": [],
      "stateMutability": "nonpayable",
      "type": "function"
    },
    {
      "inputs": [
        {
          "internalType": "address",
          "name": "from",
          "type": "address"
        },
        {
          "internalType": "address",
          "name": "to",
          "type": "address"
        },
        {
          "internalType": "uint256",
          "name": "tokenId",
          "type": "uint256"
        },
        {
          "internalType": "bytes",
          "name": "_data",
          "type": "bytes"
        }
      ],
      "name": "safeTransferFrom",
      "outputs": [],
      "stateMutability": "nonpayable",
      "type": "function"
    },
    {
      "inputs": [
        {
          "internalType": "address",
          "name": "operator",
          "type": "address"
        },
        {
          "internalType": "bool",
          "name": "approved",
          "type": "bool"
        }
      ],
      "name": "setApprovalForAll",
      "outputs": [],
      "stateMutability": "nonpayable",
      "type": "function"
    },
    {
      "inputs": [
        {
          "internalType": "uint256",
          "name": "_tokenId",
          "type": "uint256"
        },
        {
          "internalType": "string",
          "name": "_tokenURI",
          "type": "string"
        }
      ],
      "name": "setTokenURI",
      "outputs": [],
      "stateMutability": "payable",
      "type": "function"
    },
    {
      "inputs": [
        {
          "internalType": "bytes4",
          "name": "interfaceId",
          "type": "bytes4"
        }
      ],
      "name": "supportsInterface",
      "outputs": [
        {
          "internalType": "bool",
          "name": "",
          "type": "bool"
        }
      ],
      "stateMutability": "view",
      "type": "function"
    },
    {
      "inputs": [],
      "name": "symbol",
      "outputs": [
        {
          "internalType": "string",
          "name": "",
          "type": "string"
        }
      ],
      "stateMutability": "view",
      "type": "function"
    },
    {
      "inputs": [
        {
          "internalType": "uint256",
          "name": "index",
          "type": "uint256"
        }
      ],
      "name": "tokenByIndex",
      "outputs": [
        {
          "internalType": "uint256",
          "name": "",
          "type": "uint256"
        }
      ],
      "stateMutability": "view",
      "type": "function"
    },
    {
      "inputs": [
        {
          "internalType": "address",
          "name": "owner",
          "type": "address"
        },
        {
          "internalType": "uint256",
          "name": "index",
          "type": "uint256"
        }
      ],
      "name": "tokenOfOwnerByIndex",
      "outputs": [
        {
          "internalType": "uint256",
          "name": "",
          "type": "uint256"
        }
      ],
      "stateMutability": "view",
      "type": "function"
    },
    {
      "inputs": [
        {
          "internalType": "uint256",
          "name": "tokenId",
          "type": "uint256"
        }
      ],
      "name": "tokenURI",
      "outputs": [
        {
          "internalType": "string",
          "name": "",
          "type": "string"
        }
      ],
      "stateMutability": "view",
      "type": "function"
    },
    {
      "inputs": [],
      "name": "totalSupply",
      "outputs": [
        {
          "internalType": "uint256",
          "name": "",
          "type": "uint256"
        }
      ],
      "stateMutability": "view",
      "type": "function"
    },
    {
      "inputs": [
        {
          "internalType": "address",
          "name": "from",
          "type": "address"
        },
        {
          "internalType": "address",
          "name": "to",
          "type": "address"
        },
        {
          "internalType": "uint256",
          "name": "tokenId",
          "type": "uint256"
        }
      ],
      "name": "transferFrom",
      "outputs": [],
      "stateMutability": "nonpayable",
      "type": "function"
    },
    {
      "inputs": [
        {
          "internalType": "address",
          "name": "newOwner",
          "type": "address"
        }
      ],
      "name": "transferOwnership",
      "outputs": [],
      "stateMutability": "nonpayable",
      "type": "function"
    },
    {
      "inputs": [
        {
          "internalType": "uint256",
          "name": "amount",
          "type": "uint256"
        }
      ],
      "name": "withdraw",
      "outputs": [],
      "stateMutability": "nonpayable",
      "type": "function"
    },
    {
      "stateMutability": "payable",
      "type": "receive"
    }
  ],
  "bytecode": "0x60806040523480156200001157600080fd5b506040516200375a3803806200375a833981810160405260608110156200003757600080fd5b81019080805160405193929190846401000000008211156200005857600080fd5b838201915060208201858111156200006f57600080fd5b82518660018202830111640100000000821117156200008d57600080fd5b8083526020830192505050908051906020019080838360005b83811015620000c3578082015181840152602081019050620000a6565b50505050905090810190601f168015620000f15780820380516001836020036101000a031916815260200191505b50604052602001805160405193929190846401000000008211156200011557600080fd5b838201915060208201858111156200012c57600080fd5b82518660018202830111640100000000821117156200014a57600080fd5b8083526020830192505050908051906020019080838360005b838110156200018057808201518184015260208101905062000163565b50505050905090810190601f168015620001ae5780820380516001836020036101000a031916815260200191505b5060405260200180516040519392919084640100000000821115620001d257600080fd5b83820191506020820185811115620001e957600080fd5b82518660018202830111640100000000821117156200020757600080fd5b8083526020830192505050908051906020019080838360005b838110156200023d57808201518184015260208101905062000220565b50505050905090810190601f1680156200026b5780820380516001836020036101000a031916815260200191505b5060405250505082826200028c6301ffc9a760e01b620003d360201b60201c565b8160069080519060200190620002a492919062000500565b508060079080519060200190620002bd92919062000500565b50620002d66380ac58cd60e01b620003d360201b60201c565b620002ee635b5e139f60e01b620003d360201b60201c565b6200030663780e9d6360e01b620003d360201b60201c565b505060006200031a620004dc60201b60201c565b905080600a60006101000a81548173ffffffffffffffffffffffffffffffffffffffff021916908373ffffffffffffffffffffffffffffffffffffffff1602179055508073ffffffffffffffffffffffffffffffffffffffff16600073ffffffffffffffffffffffffffffffffffffffff167f8be0079c531659141344cd1fd0a4f28419497f9722a3daafe3b4186f6b6457e060405160405180910390a350620003ca81620004e460201b60201c565b505050620005a6565b63ffffffff60e01b817bffffffffffffffffffffffffffffffffffffffffffffffffffffffff1916141562000470576040517f08c379a000000000000000000000000000000000000000000000000000000000815260040180806020018281038252601c8152602001807f4552433136353a20696e76616c696420696e746572666163652069640000000081525060200191505060405180910390fd5b6001600080837bffffffffffffffffffffffffffffffffffffffffffffffffffffffff19167bffffffffffffffffffffffffffffffffffffffffffffffffffffffff1916815260200190815260200160002060006101000a81548160ff02191690831515021790555050565b600033905090565b8060099080519060200190620004fc92919062000500565b5050565b828054600181600116156101000203166002900490600052602060002090601f016020900481019282601f106200054357805160ff191683800117855562000574565b8280016001018555821562000574579182015b828111156200057357825182559160200191906001019062000556565b5b50905062000583919062000587565b5090565b5b80821115620005a257600081600090555060010162000588565b5090565b6131a480620005b66000396000f3fe6080604052600436106101445760003560e01c80636352211e116100b6578063a22cb4651161006f578063a22cb46514610831578063a57497101461088e578063b88d4fde146108b9578063c87b56dd146109cb578063e985e9c514610a7f578063f2fde38b14610b065761014b565b80636352211e146105ef5780636c0360eb1461065457806370a08231146106e4578063715018a6146107495780638da5cb5b1461076057806395d89b41146107a15761014b565b806318160ddd1161010857806318160ddd146103d557806323b872dd146104005780632e1a7d4d1461047b5780632f745c59146104b657806342842e0e146105255780634f6ccce7146105a05761014b565b806301ffc9a71461015057806306fdde03146101c0578063081812fc14610250578063095ea7b3146102b5578063162094c4146103105761014b565b3661014b57005b600080fd5b34801561015c57600080fd5b506101a86004803603602081101561017357600080fd5b8101908080357bffffffffffffffffffffffffffffffffffffffffffffffffffffffff19169060200190929190505050610b57565b60405180821515815260200191505060405180910390f35b3480156101cc57600080fd5b506101d5610bbe565b6040518080602001828103825283818151815260200191508051906020019080838360005b838110156102155780820151818401526020810190506101fa565b50505050905090810190601f1680156102425780820380516001836020036101000a031916815260200191505b509250505060405180910390f35b34801561025c57600080fd5b506102896004803603602081101561027357600080fd5b8101908080359060200190929190505050610c60565b604051808273ffffffffffffffffffffffffffffffffffffffff16815260200191505060405180910390f35b3480156102c157600080fd5b5061030e600480360360408110156102d857600080fd5b81019080803573ffffffffffffffffffffffffffffffffffffffff16906020019092919080359060200190929190505050610cfb565b005b6103d36004803603604081101561032657600080fd5b81019080803590602001909291908035906020019064010000000081111561034d57600080fd5b82018360208201111561035f57600080fd5b8035906020019184600183028401116401000000008311171561038157600080fd5b91908080601f016020809104026020016040519081016040528093929190818152602001838380828437600081840152601f19601f820116905080830192505050505050509192919290505050610e3f565b005b3480156103e157600080fd5b506103ea610efc565b6040518082815260200191505060405180910390f35b34801561040c57600080fd5b506104796004803603606081101561042357600080fd5b81019080803573ffffffffffffffffffffffffffffffffffffffff169060200190929190803573ffffffffffffffffffffffffffffffffffffffff16906020019092919080359060200190929190505050610f0d565b005b34801561048757600080fd5b506104b46004803603602081101561049e57600080fd5b8101908080359060200190929190505050610f83565b005b3480156104c257600080fd5b5061050f600480360360408110156104d957600080fd5b81019080803573ffffffffffffffffffffffffffffffffffffffff1690602001909291908035906020019092919050505061108f565b6040518082815260200191505060405180910390f35b34801561053157600080fd5b5061059e6004803603606081101561054857600080fd5b81019080803573ffffffffffffffffffffffffffffffffffffffff169060200190929190803573ffffffffffffffffffffffffffffffffffffffff169060200190929190803590602001909291905050506110ea565b005b3480156105ac57600080fd5b506105d9600480360360208110156105c357600080fd5b810190808035906020019092919050505061110a565b6040518082815260200191505060405180910390f35b3480156105fb57600080fd5b506106286004803603602081101561061257600080fd5b810190808035906020019092919050505061112d565b604051808273ffffffffffffffffffffffffffffffffffffffff16815260200191505060405180910390f35b34801561066057600080fd5b50610669611164565b6040518080602001828103825283818151815260200191508051906020019080838360005b838110156106a957808201518184015260208101905061068e565b50505050905090810190601f1680156106d65780820380516001836020036101000a031916815260200191505b509250505060405180910390f35b3480156106f057600080fd5b506107336004803603602081101561070757600080fd5b81019080803573ffffffffffffffffffffffffffffffffffffffff169060200190929190505050611206565b6040518082815260200191505060405180910390f35b34801561075557600080fd5b5061075e6112db565b005b34801561076c57600080fd5b5061077561144b565b604051808273ffffffffffffffffffffffffffffffffffffffff16815260200191505060405180910390f35b3480156107ad57600080fd5b506107b6611475565b6040518080602001828103825283818151815260200191508051906020019080838360005b838110156107f65780820151818401526020810190506107db565b50505050905090810190601f1680156108235780820380516001836020036101000a031916815260200191505b509250505060405180910390f35b34801561083d57600080fd5b5061088c6004803603604081101561085457600080fd5b81019080803573ffffffffffffffffffffffffffffffffffffffff169060200190929190803515159060200190929190505050611517565b005b34801561089a57600080fd5b506108a36116cd565b6040518082815260200191505060405180910390f35b3480156108c557600080fd5b506109c9600480360360808110156108dc57600080fd5b81019080803573ffffffffffffffffffffffffffffffffffffffff169060200190929190803573ffffffffffffffffffffffffffffffffffffffff169060200190929190803590602001909291908035906020019064010000000081111561094357600080fd5b82018360208201111561095557600080fd5b8035906020019184600183028401116401000000008311171561097757600080fd5b91908080601f016020809104026020016040519081016040528093929190818152602001838380828437600081840152601f19601f82011690508083019250505050505050919291929050505061178a565b005b3480156109d757600080fd5b50610a04600480360360208110156109ee57600080fd5b8101908080359060200190929190505050611802565b6040518080602001828103825283818151815260200191508051906020019080838360005b83811015610a44578082015181840152602081019050610a29565b50505050905090810190601f168015610a715780820380516001836020036101000a031916815260200191505b509250505060405180910390f35b348015610a8b57600080fd5b50610aee60048036036040811015610aa257600080fd5b81019080803573ffffffffffffffffffffffffffffffffffffffff169060200190929190803573ffffffffffffffffffffffffffffffffffffffff169060200190929190505050611ad3565b60405180821515815260200191505060405180910390f35b348015610b1257600080fd5b50610b5560048036036020811015610b2957600080fd5b81019080803573ffffffffffffffffffffffffffffffffffffffff169060200190929190505050611b67565b005b6000806000837bffffffffffffffffffffffffffffffffffffffffffffffffffffffff19167bffffffffffffffffffffffffffffffffffffffffffffffffffffffff1916815260200190815260200160002060009054906101000a900460ff169050919050565b606060068054600181600116156101000203166002900480601f016020809104026020016040519081016040528092919081815260200182805460018160011615610100020316600290048015610c565780601f10610c2b57610100808354040283529160200191610c56565b820191906000526020600020905b815481529060010190602001808311610c3957829003601f168201915b5050505050905090565b6000610c6b82611d5c565b610cc0576040517f08c379a000000000000000000000000000000000000000000000000000000000815260040180806020018281038252602c81526020018061306d602c913960400191505060405180910390fd5b6004600083815260200190815260200160002060009054906101000a900473ffffffffffffffffffffffffffffffffffffffff169050919050565b6000610d068261112d565b90508073ffffffffffffffffffffffffffffffffffffffff168373ffffffffffffffffffffffffffffffffffffffff161415610d8d576040517f08c379a000000000000000000000000000000000000000000000000000000000815260040180806020018281038252602181526020018061311d6021913960400191505060405180910390fd5b8073ffffffffffffffffffffffffffffffffffffffff16610dac611d79565b73ffffffffffffffffffffffffffffffffffffffff161480610ddb5750610dda81610dd5611d79565b611ad3565b5b610e30576040517f08c379a0000000000000000000000000000000000000000000000000000000008152600401808060200182810382526038815260200180612fc06038913960400191505060405180910390fd5b610e3a8383611d81565b505050565b610e47611d79565b73ffffffffffffffffffffffffffffffffffffffff16610e6561144b565b73ffffffffffffffffffffffffffffffffffffffff1614610eee576040517f08c379a00000000000000000000000000000000000000000000000000000000081526004018080602001828103825260208152602001807f4f776e61626c653a2063616c6c6572206973206e6f7420746865206f776e657281525060200191505060405180910390fd5b610ef88282611e3a565b5050565b6000610f086002611ec4565b905090565b610f1e610f18611d79565b82611ed9565b610f73576040517f08c379a000000000000000000000000000000000000000000000000000000000815260040180806020018281038252603181526020018061313e6031913960400191505060405180910390fd5b610f7e838383611fcd565b505050565b610f8b611d79565b73ffffffffffffffffffffffffffffffffffffffff16610fa961144b565b73ffffffffffffffffffffffffffffffffffffffff1614611032576040517f08c379a00000000000000000000000000000000000000000000000000000000081526004018080602001828103825260208152602001807f4f776e61626c653a2063616c6c6572206973206e6f7420746865206f776e657281525060200191505060405180910390fd5b60004790508082111561104457600080fd5b3373ffffffffffffffffffffffffffffffffffffffff166108fc839081150290604051600060405180830381858888f1935050505015801561108a573d6000803e3d6000fd5b505050565b60006110e282600160008673ffffffffffffffffffffffffffffffffffffffff1673ffffffffffffffffffffffffffffffffffffffff16815260200190815260200160002061221090919063ffffffff16565b905092915050565b6111058383836040518060200160405280600081525061178a565b505050565b60008061112183600261222a90919063ffffffff16565b50905080915050919050565b600061115d826040518060600160405280602981526020016130226029913960026122569092919063ffffffff16565b9050919050565b606060098054600181600116156101000203166002900480601f0160208091040260200160405190810160405280929190818152602001828054600181600116156101000203166002900480156111fc5780601f106111d1576101008083540402835291602001916111fc565b820191906000526020600020905b8154815290600101906020018083116111df57829003601f168201915b5050505050905090565b60008073ffffffffffffffffffffffffffffffffffffffff168273ffffffffffffffffffffffffffffffffffffffff16141561128d576040517f08c379a000000000000000000000000000000000000000000000000000000000815260040180806020018281038252602a815260200180612ff8602a913960400191505060405180910390fd5b6112d4600160008473ffffffffffffffffffffffffffffffffffffffff1673ffffffffffffffffffffffffffffffffffffffff168152602001908152602001600020612275565b9050919050565b6112e3611d79565b73ffffffffffffffffffffffffffffffffffffffff1661130161144b565b73ffffffffffffffffffffffffffffffffffffffff161461138a576040517f08c379a00000000000000000000000000000000000000000000000000000000081526004018080602001828103825260208152602001807f4f776e61626c653a2063616c6c6572206973206e6f7420746865206f776e657281525060200191505060405180910390fd5b600073ffffffffffffffffffffffffffffffffffffffff16600a60009054906101000a900473ffffffffffffffffffffffffffffffffffffffff1673ffffffffffffffffffffffffffffffffffffffff167f8be0079c531659141344cd1fd0a4f28419497f9722a3daafe3b4186f6b6457e060405160405180910390a36000600a60006101000a81548173ffffffffffffffffffffffffffffffffffffffff021916908373ffffffffffffffffffffffffffffffffffffffff160217905550565b6000600a60009054906101000a900473ffffffffffffffffffffffffffffffffffffffff16905090565b606060078054600181600116156101000203166002900480601f01602080910402602001604051908101604052809291908181526020018280546001816001161561010002031660029004801561150d5780601f106114e25761010080835404028352916020019161150d565b820191906000526020600020905b8154815290600101906020018083116114f057829003601f168201915b5050505050905090565b61151f611d79565b73ffffffffffffffffffffffffffffffffffffffff168273ffffffffffffffffffffffffffffffffffffffff1614156115c0576040517f08c379a00000000000000000000000000000000000000000000000000000000081526004018080602001828103825260198152602001807f4552433732313a20617070726f766520746f2063616c6c65720000000000000081525060200191505060405180910390fd5b80600560006115cd611d79565b73ffffffffffffffffffffffffffffffffffffffff1673ffffffffffffffffffffffffffffffffffffffff16815260200190815260200160002060008473ffffffffffffffffffffffffffffffffffffffff1673ffffffffffffffffffffffffffffffffffffffff16815260200190815260200160002060006101000a81548160ff0219169083151502179055508173ffffffffffffffffffffffffffffffffffffffff1661167a611d79565b73ffffffffffffffffffffffffffffffffffffffff167f17307eab39ab6107e8899845ad3d59bd9653f200f220920489ca2b5937696c318360405180821515815260200191505060405180910390a35050565b60006116d7611d79565b73ffffffffffffffffffffffffffffffffffffffff166116f561144b565b73ffffffffffffffffffffffffffffffffffffffff161461177e576040517f08c379a00000000000000000000000000000000000000000000000000000000081526004018080602001828103825260208152602001807f4f776e61626c653a2063616c6c6572206973206e6f7420746865206f776e657281525060200191505060405180910390fd5b60004790508091505090565b61179b611795611d79565b83611ed9565b6117f0576040517f08c379a000000000000000000000000000000000000000000000000000000000815260040180806020018281038252603181526020018061313e6031913960400191505060405180910390fd5b6117fc8484848461228a565b50505050565b606061180d82611d5c565b611862576040517f08c379a000000000000000000000000000000000000000000000000000000000815260040180806020018281038252602f8152602001806130ee602f913960400191505060405180910390fd5b6060600860008481526020019081526020016000208054600181600116156101000203166002900480601f01602080910402602001604051908101604052809291908181526020018280546001816001161561010002031660029004801561190b5780601f106118e05761010080835404028352916020019161190b565b820191906000526020600020905b8154815290600101906020018083116118ee57829003601f168201915b50505050509050606061191c611164565b9050600081511415611932578192505050611ace565b600082511115611a035780826040516020018083805190602001908083835b602083106119745780518252602082019150602081019050602083039250611951565b6001836020036101000a03801982511681845116808217855250505050505090500182805190602001908083835b602083106119c557805182526020820191506020810190506020830392506119a2565b6001836020036101000a0380198251168184511680821785525050505050509050019250505060405160208183030381529060405292505050611ace565b80611a0d856122fc565b6040516020018083805190602001908083835b60208310611a435780518252602082019150602081019050602083039250611a20565b6001836020036101000a03801982511681845116808217855250505050505090500182805190602001908083835b60208310611a945780518252602082019150602081019050602083039250611a71565b6001836020036101000a03801982511681845116808217855250505050505090500192505050604051602081830303815290604052925050505b919050565b6000600560008473ffffffffffffffffffffffffffffffffffffffff1673ffffffffffffffffffffffffffffffffffffffff16815260200190815260200160002060008373ffffffffffffffffffffffffffffffffffffffff1673ffffffffffffffffffffffffffffffffffffffff16815260200190815260200160002060009054906101000a900460ff16905092915050565b611b6f611d79565b73ffffffffffffffffffffffffffffffffffffffff16611b8d61144b565b73ffffffffffffffffffffffffffffffffffffffff1614611c16576040517f08c379a00000000000000000000000000000000000000000000000000000000081526004018080602001828103825260208152602001807f4f776e61626c653a2063616c6c6572206973206e6f7420746865206f776e657281525060200191505060405180910390fd5b600073ffffffffffffffffffffffffffffffffffffffff168173ffffffffffffffffffffffffffffffffffffffff161415611c9c576040517f08c379a0000000000000000000000000000000000000000000000000000000008152600401808060200182810382526026815260200180612f246026913960400191505060405180910390fd5b8073ffffffffffffffffffffffffffffffffffffffff16600a60009054906101000a900473ffffffffffffffffffffffffffffffffffffffff1673ffffffffffffffffffffffffffffffffffffffff167f8be0079c531659141344cd1fd0a4f28419497f9722a3daafe3b4186f6b6457e060405160405180910390a380600a60006101000a81548173ffffffffffffffffffffffffffffffffffffffff021916908373ffffffffffffffffffffffffffffffffffffffff16021790555050565b6000611d7282600261244390919063ffffffff16565b9050919050565b600033905090565b816004600083815260200190815260200160002060006101000a81548173ffffffffffffffffffffffffffffffffffffffff021916908373ffffffffffffffffffffffffffffffffffffffff160217905550808273ffffffffffffffffffffffffffffffffffffffff16611df48361112d565b73ffffffffffffffffffffffffffffffffffffffff167f8c5be1e5ebec7d5bd14f71427d1e84f3dd0314c0f7b2291e5b200ac8c7c3b92560405160405180910390a45050565b611e4382611d5c565b611e98576040517f08c379a000000000000000000000000000000000000000000000000000000000815260040180806020018281038252602c815260200180613099602c913960400191505060405180910390fd5b80600860008481526020019081526020016000209080519060200190611ebf929190612e32565b505050565b6000611ed28260000161245d565b9050919050565b6000611ee482611d5c565b611f39576040517f08c379a000000000000000000000000000000000000000000000000000000000815260040180806020018281038252602c815260200180612f94602c913960400191505060405180910390fd5b6000611f448361112d565b90508073ffffffffffffffffffffffffffffffffffffffff168473ffffffffffffffffffffffffffffffffffffffff161480611fb357508373ffffffffffffffffffffffffffffffffffffffff16611f9b84610c60565b73ffffffffffffffffffffffffffffffffffffffff16145b80611fc45750611fc38185611ad3565b5b91505092915050565b8273ffffffffffffffffffffffffffffffffffffffff16611fed8261112d565b73ffffffffffffffffffffffffffffffffffffffff1614612059576040517f08c379a00000000000000000000000000000000000000000000000000000000081526004018080602001828103825260298152602001806130c56029913960400191505060405180910390fd5b600073ffffffffffffffffffffffffffffffffffffffff168273ffffffffffffffffffffffffffffffffffffffff1614156120df576040517f08c379a0000000000000000000000000000000000000000000000000000000008152600401808060200182810382526024815260200180612f4a6024913960400191505060405180910390fd5b6120ea83838361246e565b6120f5600082611d81565b61214681600160008673ffffffffffffffffffffffffffffffffffffffff1673ffffffffffffffffffffffffffffffffffffffff16815260200190815260200160002061247390919063ffffffff16565b5061219881600160008573ffffffffffffffffffffffffffffffffffffffff1673ffffffffffffffffffffffffffffffffffffffff16815260200190815260200160002061248d90919063ffffffff16565b506121af818360026124a79092919063ffffffff16565b50808273ffffffffffffffffffffffffffffffffffffffff168473ffffffffffffffffffffffffffffffffffffffff167fddf252ad1be2c89b69c2b068fc378daa952ba7f163c4a11628f55a4df523b3ef60405160405180910390a4505050565b600061221f83600001836124dc565b60001c905092915050565b60008060008061223d866000018661255f565b915091508160001c8160001c9350935050509250929050565b6000612269846000018460001b846125f8565b60001c90509392505050565b6000612283826000016126ee565b9050919050565b612295848484611fcd565b6122a1848484846126ff565b6122f6576040517f08c379a0000000000000000000000000000000000000000000000000000000008152600401808060200182810382526032815260200180612ef26032913960400191505060405180910390fd5b50505050565b60606000821415612344576040518060400160405280600181526020017f3000000000000000000000000000000000000000000000000000000000000000815250905061243e565b600082905060005b6000821461236e578080600101915050600a828161236657fe5b04915061234c565b60608167ffffffffffffffff8111801561238757600080fd5b506040519080825280601f01601f1916602001820160405280156123ba5781602001600182028036833780820191505090505b50905060006001830390508593505b6000841461243657600a84816123db57fe5b0660300160f81b828280600190039350815181106123f557fe5b60200101907effffffffffffffffffffffffffffffffffffffffffffffffffffffffffffff1916908160001a905350600a848161242e57fe5b0493506123c9565b819450505050505b919050565b6000612455836000018360001b612918565b905092915050565b600081600001805490509050919050565b505050565b6000612485836000018360001b61293b565b905092915050565b600061249f836000018360001b612a23565b905092915050565b60006124d3846000018460001b8473ffffffffffffffffffffffffffffffffffffffff1660001b612a93565b90509392505050565b60008183600001805490501161253d576040517f08c379a0000000000000000000000000000000000000000000000000000000008152600401808060200182810382526022815260200180612ed06022913960400191505060405180910390fd5b82600001828154811061254c57fe5b9060005260206000200154905092915050565b600080828460000180549050116125c1576040517f08c379a000000000000000000000000000000000000000000000000000000000815260040180806020018281038252602281526020018061304b6022913960400191505060405180910390fd5b60008460000184815481106125d257fe5b906000526020600020906002020190508060000154816001015492509250509250929050565b600080846001016000858152602001908152602001600020549050600081141583906126bf576040517f08c379a00000000000000000000000000000000000000000000000000000000081526004018080602001828103825283818151815260200191508051906020019080838360005b83811015612684578082015181840152602081019050612669565b50505050905090810190601f1680156126b15780820380516001836020036101000a031916815260200191505b509250505060405180910390fd5b508460000160018203815481106126d257fe5b9060005260206000209060020201600101549150509392505050565b600081600001805490509050919050565b60006127208473ffffffffffffffffffffffffffffffffffffffff16612b6f565b61272d5760019050612910565b606061289763150b7a0260e01b612742611d79565b888787604051602401808573ffffffffffffffffffffffffffffffffffffffff1681526020018473ffffffffffffffffffffffffffffffffffffffff16815260200183815260200180602001828103825283818151815260200191508051906020019080838360005b838110156127c65780820151818401526020810190506127ab565b50505050905090810190601f1680156127f35780820380516001836020036101000a031916815260200191505b5095505050505050604051602081830303815290604052907bffffffffffffffffffffffffffffffffffffffffffffffffffffffff19166020820180517bffffffffffffffffffffffffffffffffffffffffffffffffffffffff8381831617835250505050604051806060016040528060328152602001612ef2603291398773ffffffffffffffffffffffffffffffffffffffff16612b829092919063ffffffff16565b905060008180602001905160208110156128b057600080fd5b8101908080519060200190929190505050905063150b7a0260e01b7bffffffffffffffffffffffffffffffffffffffffffffffffffffffff1916817bffffffffffffffffffffffffffffffffffffffffffffffffffffffff191614925050505b949350505050565b600080836001016000848152602001908152602001600020541415905092915050565b60008083600101600084815260200190815260200160002054905060008114612a17576000600182039050600060018660000180549050039050600086600001828154811061298657fe5b90600052602060002001549050808760000184815481106129a357fe5b90600052602060002001819055506001830187600101600083815260200190815260200160002081905550866000018054806129db57fe5b60019003818190600052602060002001600090559055866001016000878152602001908152602001600020600090556001945050505050612a1d565b60009150505b92915050565b6000612a2f8383612b9a565b612a88578260000182908060018154018082558091505060019003906000526020600020016000909190919091505582600001805490508360010160008481526020019081526020016000208190555060019050612a8d565b600090505b92915050565b6000808460010160008581526020019081526020016000205490506000811415612b3a57846000016040518060400160405280868152602001858152509080600181540180825580915050600190039060005260206000209060020201600090919091909150600082015181600001556020820151816001015550508460000180549050856001016000868152602001908152602001600020819055506001915050612b68565b82856000016001830381548110612b4d57fe5b90600052602060002090600202016001018190555060009150505b9392505050565b600080823b905060008111915050919050565b6060612b918484600085612bbd565b90509392505050565b600080836001016000848152602001908152602001600020541415905092915050565b606082471015612c18576040517f08c379a0000000000000000000000000000000000000000000000000000000008152600401808060200182810382526026815260200180612f6e6026913960400191505060405180910390fd5b612c2185612b6f565b612c93576040517f08c379a000000000000000000000000000000000000000000000000000000000815260040180806020018281038252601d8152602001807f416464726573733a2063616c6c20746f206e6f6e2d636f6e747261637400000081525060200191505060405180910390fd5b600060608673ffffffffffffffffffffffffffffffffffffffff1685876040518082805190602001908083835b60208310612ce35780518252602082019150602081019050602083039250612cc0565b6001836020036101000a03801982511681845116808217855250505050505090500191505060006040518083038185875af1925050503d8060008114612d45576040519150601f19603f3d011682016040523d82523d6000602084013e612d4a565b606091505b5091509150612d5a828286612d66565b92505050949350505050565b60608315612d7657829050612e2b565b600083511115612d895782518084602001fd5b816040517f08c379a00000000000000000000000000000000000000000000000000000000081526004018080602001828103825283818151815260200191508051906020019080838360005b83811015612df0578082015181840152602081019050612dd5565b50505050905090810190601f168015612e1d5780820380516001836020036101000a031916815260200191505b509250505060405180910390fd5b9392505050565b828054600181600116156101000203166002900490600052602060002090601f016020900481019282601f10612e7357805160ff1916838001178555612ea1565b82800160010185558215612ea1579182015b82811115612ea0578251825591602001919060010190612e85565b5b509050612eae9190612eb2565b5090565b5b80821115612ecb576000816000905550600101612eb3565b509056fe456e756d657261626c655365743a20696e646578206f7574206f6620626f756e64734552433732313a207472616e7366657220746f206e6f6e20455243373231526563656976657220696d706c656d656e7465724f776e61626c653a206e6577206f776e657220697320746865207a65726f20616464726573734552433732313a207472616e7366657220746f20746865207a65726f2061646472657373416464726573733a20696e73756666696369656e742062616c616e636520666f722063616c6c4552433732313a206f70657261746f7220717565727920666f72206e6f6e6578697374656e7420746f6b656e4552433732313a20617070726f76652063616c6c6572206973206e6f74206f776e6572206e6f7220617070726f76656420666f7220616c6c4552433732313a2062616c616e636520717565727920666f7220746865207a65726f20616464726573734552433732313a206f776e657220717565727920666f72206e6f6e6578697374656e7420746f6b656e456e756d657261626c654d61703a20696e646578206f7574206f6620626f756e64734552433732313a20617070726f76656420717565727920666f72206e6f6e6578697374656e7420746f6b656e4552433732314d657461646174613a2055524920736574206f66206e6f6e6578697374656e7420746f6b656e4552433732313a207472616e73666572206f6620746f6b656e2074686174206973206e6f74206f776e4552433732314d657461646174613a2055524920717565727920666f72206e6f6e6578697374656e7420746f6b656e4552433732313a20617070726f76616c20746f2063757272656e74206f776e65724552433732313a207472616e736665722063616c6c6572206973206e6f74206f776e6572206e6f7220617070726f766564a26469706673582212206baa1348c34c02e6405761ad52099fd2e19d459ad768f3e66ad095a6503a24aa64736f6c634300060c0033",
  "linkReferences": {},
  "deployedLinkReferences": {}
}