{
  "_format": "hh-sol-artifact-1",
  "contractName": "CustomAccessControl",
  "sourceName": "contracts/CustomAccessControl.sol",
  "abi": [
    {
      "anonymous": false,
      "inputs": [
        {
          "indexed": true,
          "internalType": "address",
          "name": "previousOwner",
          "type": "address"
        },
        {
          "indexed": true,
          "internalType": "address",
          "name": "newOwner",
          "type": "address"
        }
      ],
      "name": "OwnershipTransferred",
      "type": "event"
    },
    {
      "anonymous": false,
      "inputs": [
        {
          "indexed": true,
          "internalType": "bytes32",
          "name": "role",
          "type": "bytes32"
        },
        {
          "indexed": true,
          "internalType": "bytes32",
          "name": "previousAdminRole",
          "type": "bytes32"
        },
        {
          "indexed": true,
          "internalType": "bytes32",
          "name": "newAdminRole",
          "type": "bytes32"
        }
      ],
      "name": "RoleAdminChanged",
      "type": "event"
    },
    {
      "anonymous": false,
      "inputs": [
        {
          "indexed": true,
          "internalType": "bytes32",
          "name": "role",
          "type": "bytes32"
        },
        {
          "indexed": true,
          "internalType": "address",
          "name": "account",
          "type": "address"
        },
        {
          "indexed": true,
          "internalType": "address",
          "name": "sender",
          "type": "address"
        }
      ],
      "name": "RoleGranted",
      "type": "event"
    },
    {
      "anonymous": false,
      "inputs": [
        {
          "indexed": true,
          "internalType": "bytes32",
          "name": "role",
          "type": "bytes32"
        },
        {
          "indexed": true,
          "internalType": "address",
          "name": "account",
          "type": "address"
        },
        {
          "indexed": true,
          "internalType": "address",
          "name": "sender",
          "type": "address"
        }
      ],
      "name": "RoleRevoked",
      "type": "event"
    },
    {
      "inputs": [],
      "name": "DEFAULT_ADMIN_ROLE",
      "outputs": [
        {
          "internalType": "bytes32",
          "name": "",
          "type": "bytes32"
        }
      ],
      "stateMutability": "view",
      "type": "function"
    },
    {
      "inputs": [],
      "name": "SUPPORT_ROLE",
      "outputs": [
        {
          "internalType": "bytes32",
          "name": "",
          "type": "bytes32"
        }
      ],
      "stateMutability": "view",
      "type": "function"
    },
    {
      "inputs": [
        {
          "internalType": "address",
          "name": "account",
          "type": "address"
        }
      ],
      "name": "adminLevelAccess",
      "outputs": [
        {
          "internalType": "bool",
          "name": "",
          "type": "bool"
        }
      ],
      "stateMutability": "view",
      "type": "function"
    },
    {
      "inputs": [
        {
          "internalType": "address",
          "name": "account",
          "type": "address"
        }
      ],
      "name": "getAddressRole",
      "outputs": [
        {
          "internalType": "string",
          "name": "",
          "type": "string"
        }
      ],
      "stateMutability": "nonpayable",
      "type": "function"
    },
    {
      "inputs": [],
      "name": "getAllAccessAddresses",
      "outputs": [
        {
          "internalType": "address payable[]",
          "name": "",
          "type": "address[]"
        }
      ],
      "stateMutability": "view",
      "type": "function"
    },
    {
      "inputs": [
        {
          "internalType": "bytes32",
          "name": "role",
          "type": "bytes32"
        }
      ],
      "name": "getRoleAdmin",
      "outputs": [
        {
          "internalType": "bytes32",
          "name": "",
          "type": "bytes32"
        }
      ],
      "stateMutability": "view",
      "type": "function"
    },
    {
      "inputs": [
        {
          "internalType": "bytes32",
          "name": "role",
          "type": "bytes32"
        },
        {
          "internalType": "uint256",
          "name": "index",
          "type": "uint256"
        }
      ],
      "name": "getRoleMember",
      "outputs": [
        {
          "internalType": "address",
          "name": "",
          "type": "address"
        }
      ],
      "stateMutability": "view",
      "type": "function"
    },
    {
      "inputs": [
        {
          "internalType": "bytes32",
          "name": "role",
          "type": "bytes32"
        }
      ],
      "name": "getRoleMemberCount",
      "outputs": [
        {
          "internalType": "uint256",
          "name": "",
          "type": "uint256"
        }
      ],
      "stateMutability": "view",
      "type": "function"
    },
    {
      "inputs": [
        {
          "internalType": "address payable",
          "name": "account",
          "type": "address"
        }
      ],
      "name": "grantAdminAccess",
      "outputs": [],
      "stateMutability": "nonpayable",
      "type": "function"
    },
    {
      "inputs": [
        {
          "internalType": "bytes32",
          "name": "role",
          "type": "bytes32"
        },
        {
          "internalType": "address",
          "name": "account",
          "type": "address"
        }
      ],
      "name": "grantRole",
      "outputs": [],
      "stateMutability": "nonpayable",
      "type": "function"
    },
    {
      "inputs": [
        {
          "internalType": "address payable",
          "name": "account",
          "type": "address"
        }
      ],
      "name": "grantSupportAccess",
      "outputs": [],
      "stateMutability": "nonpayable",
      "type": "function"
    },
    {
      "inputs": [
        {
          "internalType": "bytes32",
          "name": "role",
          "type": "bytes32"
        },
        {
          "internalType": "address",
          "name": "account",
          "type": "address"
        }
      ],
      "name": "hasRole",
      "outputs": [
        {
          "internalType": "bool",
          "name": "",
          "type": "bool"
        }
      ],
      "stateMutability": "view",
      "type": "function"
    },
    {
      "inputs": [],
      "name": "owner",
      "outputs": [
        {
          "internalType": "address",
          "name": "",
          "type": "address"
        }
      ],
      "stateMutability": "view",
      "type": "function"
    },
    {
      "inputs": [],
      "name": "renounceOwnership",
      "outputs": [],
      "stateMutability": "nonpayable",
      "type": "function"
    },
    {
      "inputs": [
        {
          "internalType": "bytes32",
          "name": "role",
          "type": "bytes32"
        },
        {
          "internalType": "address",
          "name": "account",
          "type": "address"
        }
      ],
      "name": "renounceRole",
      "outputs": [],
      "stateMutability": "nonpayable",
      "type": "function"
    },
    {
      "inputs": [
        {
          "internalType": "address payable",
          "name": "account",
          "type": "address"
        }
      ],
      "name": "revokeAccessRole",
      "outputs": [
        {
          "internalType": "bool",
          "name": "",
          "type": "bool"
        }
      ],
      "stateMutability": "payable",
      "type": "function"
    },
    {
      "inputs": [
        {
          "internalType": "bytes32",
          "name": "role",
          "type": "bytes32"
        },
        {
          "internalType": "address",
          "name": "account",
          "type": "address"
        }
      ],
      "name": "revokeRole",
      "outputs": [],
      "stateMutability": "nonpayable",
      "type": "function"
    },
    {
      "inputs": [
        {
          "internalType": "address",
          "name": "account",
          "type": "address"
        }
      ],
      "name": "superAdminLevelAccess",
      "outputs": [
        {
          "internalType": "bool",
          "name": "",
          "type": "bool"
        }
      ],
      "stateMutability": "view",
      "type": "function"
    },
    {
      "inputs": [
        {
          "internalType": "address",
          "name": "account",
          "type": "address"
        }
      ],
      "name": "supportLevelAccess",
      "outputs": [
        {
          "internalType": "bool",
          "name": "",
          "type": "bool"
        }
      ],
      "stateMutability": "view",
      "type": "function"
    },
    {
      "inputs": [
        {
          "internalType": "address",
          "name": "newOwner",
          "type": "address"
        }
      ],
      "name": "transferOwnership",
      "outputs": [],
      "stateMutability": "nonpayable",
      "type": "function"
    }
  ],
  "bytecode": "0x608060405234801561001057600080fd5b5060006100216100c560201b60201c565b905080600160006101000a81548173ffffffffffffffffffffffffffffffffffffffff021916908373ffffffffffffffffffffffffffffffffffffffff1602179055508073ffffffffffffffffffffffffffffffffffffffff16600073ffffffffffffffffffffffffffffffffffffffff167f8be0079c531659141344cd1fd0a4f28419497f9722a3daafe3b4186f6b6457e060405160405180910390a3506100cd565b600033905090565b611d2b806100dc6000396000f3fe60806040526004361061011f5760003560e01c806387a6008f116100a0578063a217fddf11610064578063a217fddf146106a2578063b298bf8e146106cd578063ca15c8731461071e578063d547741f1461076d578063f2fde38b146107c85761011f565b806387a6008f146104ef5780638da5cb5b146105565780639010d07c1461059757806391d148541461060657806394b059ab146106775761011f565b806346879ea2116100e757806346879ea2146103445780636ee07e5d1461039e578063715018a61461040557806386969a391461041c5780638773c016146104885761011f565b80630577a5951461012457806322b3127a146101ee578063248a9ca31461023f5780632f2ff15d1461028e57806336568abe146102e9575b600080fd5b34801561013057600080fd5b506101736004803603602081101561014757600080fd5b81019080803573ffffffffffffffffffffffffffffffffffffffff169060200190929190505050610819565b6040518080602001828103825283818151815260200191508051906020019080838360005b838110156101b3578082015181840152602081019050610198565b50505050905090810190601f1680156101e05780820380516001836020036101000a031916815260200191505b509250505060405180910390f35b3480156101fa57600080fd5b5061023d6004803603602081101561021157600080fd5b81019080803573ffffffffffffffffffffffffffffffffffffffff169060200190929190505050610914565b005b34801561024b57600080fd5b506102786004803603602081101561026257600080fd5b8101908080359060200190929190505050610a11565b6040518082815260200191505060405180910390f35b34801561029a57600080fd5b506102e7600480360360408110156102b157600080fd5b8101908080359060200190929190803573ffffffffffffffffffffffffffffffffffffffff169060200190929190505050610a30565b005b3480156102f557600080fd5b506103426004803603604081101561030c57600080fd5b8101908080359060200190929190803573ffffffffffffffffffffffffffffffffffffffff169060200190929190505050610ab9565b005b6103866004803603602081101561035a57600080fd5b81019080803573ffffffffffffffffffffffffffffffffffffffff169060200190929190505050610b52565b60405180821515815260200191505060405180910390f35b3480156103aa57600080fd5b506103ed600480360360208110156103c157600080fd5b81019080803573ffffffffffffffffffffffffffffffffffffffff169060200190929190505050610cc1565b60405180821515815260200191505060405180910390f35b34801561041157600080fd5b5061041a610d00565b005b34801561042857600080fd5b50610431610e70565b6040518080602001828103825283818151815260200191508051906020019060200280838360005b83811015610474578082015181840152602081019050610459565b505050509050019250505060405180910390f35b34801561049457600080fd5b506104d7600480360360208110156104ab57600080fd5b81019080803573ffffffffffffffffffffffffffffffffffffffff169060200190929190505050610f30565b60405180821515815260200191505060405180910390f35b3480156104fb57600080fd5b5061053e6004803603602081101561051257600080fd5b81019080803573ffffffffffffffffffffffffffffffffffffffff169060200190929190505050610f73565b60405180821515815260200191505060405180910390f35b34801561056257600080fd5b5061056b610fc6565b604051808273ffffffffffffffffffffffffffffffffffffffff16815260200191505060405180910390f35b3480156105a357600080fd5b506105da600480360360408110156105ba57600080fd5b810190808035906020019092919080359060200190929190505050610ff0565b604051808273ffffffffffffffffffffffffffffffffffffffff16815260200191505060405180910390f35b34801561061257600080fd5b5061065f6004803603604081101561062957600080fd5b8101908080359060200190929190803573ffffffffffffffffffffffffffffffffffffffff169060200190929190505050611021565b60405180821515815260200191505060405180910390f35b34801561068357600080fd5b5061068c611052565b6040518082815260200191505060405180910390f35b3480156106ae57600080fd5b506106b7611076565b6040518082815260200191505060405180910390f35b3480156106d957600080fd5b5061071c600480360360208110156106f057600080fd5b81019080803573ffffffffffffffffffffffffffffffffffffffff16906020019092919050505061107d565b005b34801561072a57600080fd5b506107576004803603602081101561074157600080fd5b8101908080359060200190929190505050611197565b6040518082815260200191505060405180910390f35b34801561077957600080fd5b506107c66004803603604081101561079057600080fd5b8101908080359060200190929190803573ffffffffffffffffffffffffffffffffffffffff1690602001909291905050506111bd565b005b3480156107d457600080fd5b50610817600480360360208110156107eb57600080fd5b81019080803573ffffffffffffffffffffffffffffffffffffffff169060200190929190505050611246565b005b60606108286000801b83611021565b1561086a576040518060400160405280600a81526020017f41444d494e5f524f4c4500000000000000000000000000000000000000000000815250905061090f565b6108947f2caf845dccac0a49cb3aaad14db44e56e0ffc12ad8ec4db28a7095dc6d7b4ca683611021565b156108d6576040518060400160405280600c81526020017f535550504f52545f524f4c450000000000000000000000000000000000000000815250905061090f565b6040518060400160405280600a81526020017f554e41535349474e45440000000000000000000000000000000000000000000081525090505b919050565b61091c61143b565b73ffffffffffffffffffffffffffffffffffffffff1661093a610fc6565b73ffffffffffffffffffffffffffffffffffffffff16146109c3576040517f08c379a00000000000000000000000000000000000000000000000000000000081526004018080602001828103825260208152602001807f4f776e61626c653a2063616c6c6572206973206e6f7420746865206f776e657281525060200191505060405180910390fd5b6109d781600261144390919063ffffffff16565b156109eb576109e581610b52565b50610a01565b6109ff81600261145a90919063ffffffff16565b505b610a0e6000801b82610a30565b50565b6000806000838152602001908152602001600020600201549050919050565b610a5660008084815260200190815260200160002060020154610a5161143b565b611021565b610aab576040517f08c379a000000000000000000000000000000000000000000000000000000000815260040180806020018281038252602f815260200180611c42602f913960400191505060405180910390fd5b610ab582826114e3565b5050565b610ac161143b565b73ffffffffffffffffffffffffffffffffffffffff168173ffffffffffffffffffffffffffffffffffffffff1614610b44576040517f08c379a000000000000000000000000000000000000000000000000000000000815260040180806020018281038252602f815260200180611cc7602f913960400191505060405180910390fd5b610b4e8282611576565b5050565b6000610b5c61143b565b73ffffffffffffffffffffffffffffffffffffffff16610b7a610fc6565b73ffffffffffffffffffffffffffffffffffffffff1614610c03576040517f08c379a00000000000000000000000000000000000000000000000000000000081526004018080602001828103825260208152602001807f4f776e61626c653a2063616c6c6572206973206e6f7420746865206f776e657281525060200191505060405180910390fd5b610c106000801b83611021565b15610c4057610c226000801b836111bd565b610c3682600261160990919063ffffffff16565b5060019050610cbc565b610c6a7f2caf845dccac0a49cb3aaad14db44e56e0ffc12ad8ec4db28a7095dc6d7b4ca683611021565b15610cb757610c8382600261160990919063ffffffff16565b50610cae7f2caf845dccac0a49cb3aaad14db44e56e0ffc12ad8ec4db28a7095dc6d7b4ca6836111bd565b60019050610cbc565b600090505b919050565b6000610ccb610fc6565b73ffffffffffffffffffffffffffffffffffffffff168273ffffffffffffffffffffffffffffffffffffffff16149050919050565b610d0861143b565b73ffffffffffffffffffffffffffffffffffffffff16610d26610fc6565b73ffffffffffffffffffffffffffffffffffffffff1614610daf576040517f08c379a00000000000000000000000000000000000000000000000000000000081526004018080602001828103825260208152602001807f4f776e61626c653a2063616c6c6572206973206e6f7420746865206f776e657281525060200191505060405180910390fd5b600073ffffffffffffffffffffffffffffffffffffffff16600160009054906101000a900473ffffffffffffffffffffffffffffffffffffffff1673ffffffffffffffffffffffffffffffffffffffff167f8be0079c531659141344cd1fd0a4f28419497f9722a3daafe3b4186f6b6457e060405160405180910390a36000600160006101000a81548173ffffffffffffffffffffffffffffffffffffffff021916908373ffffffffffffffffffffffffffffffffffffffff160217905550565b6060610e7a61143b565b73ffffffffffffffffffffffffffffffffffffffff16610e98610fc6565b73ffffffffffffffffffffffffffffffffffffffff1614610f21576040517f08c379a00000000000000000000000000000000000000000000000000000000081526004018080602001828103825260208152602001807f4f776e61626c653a2063616c6c6572206973206e6f7420746865206f776e657281525060200191505060405180910390fd5b610f2b600261163e565b905090565b6000610f5c7f2caf845dccac0a49cb3aaad14db44e56e0ffc12ad8ec4db28a7095dc6d7b4ca683611021565b80610f6c5750610f6b82610f73565b5b9050919050565b6000610f826000801b83611021565b80610fbf5750610f90610fc6565b73ffffffffffffffffffffffffffffffffffffffff168273ffffffffffffffffffffffffffffffffffffffff16145b9050919050565b6000600160009054906101000a900473ffffffffffffffffffffffffffffffffffffffff16905090565b6000611019826000808681526020019081526020016000206000016116d090919063ffffffff16565b905092915050565b600061104a826000808681526020019081526020016000206000016116ea90919063ffffffff16565b905092915050565b7f2caf845dccac0a49cb3aaad14db44e56e0ffc12ad8ec4db28a7095dc6d7b4ca681565b6000801b81565b61108561143b565b73ffffffffffffffffffffffffffffffffffffffff166110a3610fc6565b73ffffffffffffffffffffffffffffffffffffffff161461112c576040517f08c379a00000000000000000000000000000000000000000000000000000000081526004018080602001828103825260208152602001807f4f776e61626c653a2063616c6c6572206973206e6f7420746865206f776e657281525060200191505060405180910390fd5b61114081600261144390919063ffffffff16565b156111545761114e81610b52565b5061116a565b61116881600261145a90919063ffffffff16565b505b6111947f2caf845dccac0a49cb3aaad14db44e56e0ffc12ad8ec4db28a7095dc6d7b4ca682610a30565b50565b60006111b660008084815260200190815260200160002060000161171a565b9050919050565b6111e3600080848152602001908152602001600020600201546111de61143b565b611021565b611238576040517f08c379a0000000000000000000000000000000000000000000000000000000008152600401808060200182810382526030815260200180611c976030913960400191505060405180910390fd5b6112428282611576565b5050565b61124e61143b565b73ffffffffffffffffffffffffffffffffffffffff1661126c610fc6565b73ffffffffffffffffffffffffffffffffffffffff16146112f5576040517f08c379a00000000000000000000000000000000000000000000000000000000081526004018080602001828103825260208152602001807f4f776e61626c653a2063616c6c6572206973206e6f7420746865206f776e657281525060200191505060405180910390fd5b600073ffffffffffffffffffffffffffffffffffffffff168173ffffffffffffffffffffffffffffffffffffffff16141561137b576040517f08c379a0000000000000000000000000000000000000000000000000000000008152600401808060200182810382526026815260200180611c716026913960400191505060405180910390fd5b8073ffffffffffffffffffffffffffffffffffffffff16600160009054906101000a900473ffffffffffffffffffffffffffffffffffffffff1673ffffffffffffffffffffffffffffffffffffffff167f8be0079c531659141344cd1fd0a4f28419497f9722a3daafe3b4186f6b6457e060405160405180910390a380600160006101000a81548173ffffffffffffffffffffffffffffffffffffffff021916908373ffffffffffffffffffffffffffffffffffffffff16021790555050565b600033905090565b600080611450848461172f565b1215905092915050565b60006114668383611443565b6114d85782600001829080600181540180825580915050600190039060005260206000200160009091909190916101000a81548173ffffffffffffffffffffffffffffffffffffffff021916908373ffffffffffffffffffffffffffffffffffffffff160217905550600190506114dd565b600090505b92915050565b61150a8160008085815260200190815260200160002060000161188c90919063ffffffff16565b156115725761151761143b565b73ffffffffffffffffffffffffffffffffffffffff168173ffffffffffffffffffffffffffffffffffffffff16837f2f8788117e7eff1d82e926ec794901d17c78024a50270940304540a733656f0d60405160405180910390a45b5050565b61159d816000808581526020019081526020016000206000016118bc90919063ffffffff16565b15611605576115aa61143b565b73ffffffffffffffffffffffffffffffffffffffff168173ffffffffffffffffffffffffffffffffffffffff16837ff6391f5c32d9c69d2a47ea670b442974b53935d1edc7fd64eb21e047a839171b60405160405180910390a45b5050565b600080611616848461172f565b9050600081126116325761162a84826118ec565b915050611638565b60009150505b92915050565b6060816000018054806020026020016040519081016040528092919081815260200182805480156116c457602002820191906000526020600020905b8160009054906101000a900473ffffffffffffffffffffffffffffffffffffffff1673ffffffffffffffffffffffffffffffffffffffff168152602001906001019080831161167a575b50505050509050919050565b60006116df83600001836119ff565b60001c905092915050565b6000611712836000018373ffffffffffffffffffffffffffffffffffffffff1660001b611a82565b905092915050565b600061172882600001611aa5565b9050919050565b600080600090505b61174084611ab6565b811015611861578273ffffffffffffffffffffffffffffffffffffffff1684600001828154811061176d57fe5b9060005260206000200160009054906101000a900473ffffffffffffffffffffffffffffffffffffffff1673ffffffffffffffffffffffffffffffffffffffff1614156117bd5780915050611886565b60008160016117cb87611ab6565b030390508373ffffffffffffffffffffffffffffffffffffffff168560000182815481106117f557fe5b9060005260206000200160009054906101000a900473ffffffffffffffffffffffffffffffffffffffff1673ffffffffffffffffffffffffffffffffffffffff161415611846578092505050611886565b8082106118535750611861565b508080600101915050611737565b507fffffffffffffffffffffffffffffffffffffffffffffffffffffffffffffffff90505b92915050565b60006118b4836000018373ffffffffffffffffffffffffffffffffffffffff1660001b611ac7565b905092915050565b60006118e4836000018373ffffffffffffffffffffffffffffffffffffffff1660001b611b37565b905092915050565b60006118f783611ab6565b8210156119f4576000600161190b85611ab6565b039050808310156119a85783600001818154811061192557fe5b9060005260206000200160009054906101000a900473ffffffffffffffffffffffffffffffffffffffff1684600001848154811061195f57fe5b9060005260206000200160006101000a81548173ffffffffffffffffffffffffffffffffffffffff021916908373ffffffffffffffffffffffffffffffffffffffff1602179055505b836000018054806119b557fe5b6001900381819060005260206000200160006101000a81549073ffffffffffffffffffffffffffffffffffffffff0219169055905560019150506119f9565b600090505b92915050565b600081836000018054905011611a60576040517f08c379a0000000000000000000000000000000000000000000000000000000008152600401808060200182810382526022815260200180611c206022913960400191505060405180910390fd5b826000018281548110611a6f57fe5b9060005260206000200154905092915050565b600080836001016000848152602001908152602001600020541415905092915050565b600081600001805490509050919050565b600081600001805490509050919050565b6000611ad38383611a82565b611b2c578260000182908060018154018082558091505060019003906000526020600020016000909190919091505582600001805490508360010160008481526020019081526020016000208190555060019050611b31565b600090505b92915050565b60008083600101600084815260200190815260200160002054905060008114611c135760006001820390506000600186600001805490500390506000866000018281548110611b8257fe5b9060005260206000200154905080876000018481548110611b9f57fe5b9060005260206000200181905550600183018760010160008381526020019081526020016000208190555086600001805480611bd757fe5b60019003818190600052602060002001600090559055866001016000878152602001908152602001600020600090556001945050505050611c19565b60009150505b9291505056fe456e756d657261626c655365743a20696e646578206f7574206f6620626f756e6473416363657373436f6e74726f6c3a2073656e646572206d75737420626520616e2061646d696e20746f206772616e744f776e61626c653a206e6577206f776e657220697320746865207a65726f2061646472657373416363657373436f6e74726f6c3a2073656e646572206d75737420626520616e2061646d696e20746f207265766f6b65416363657373436f6e74726f6c3a2063616e206f6e6c792072656e6f756e636520726f6c657320666f722073656c66a26469706673582212201a5fb714065311a4c4f0b8f33ae23d63e87c1bc762376d8ec790635f99ef1f4f64736f6c634300060c0033",
  "linkReferences": {},
  "deployedLinkReferences": {}
}